{
  "contractName": "Auction",
  "abi": [
    {
      "inputs": [],
      "payable": false,
      "stateMutability": "nonpayable",
      "type": "constructor"
    },
    {
      "constant": true,
      "inputs": [],
      "name": "beneficiary",
      "outputs": [
        {
          "internalType": "address payable",
          "name": "",
          "type": "address"
        }
      ],
      "payable": false,
      "stateMutability": "view",
      "type": "function"
    },
    {
      "constant": true,
      "inputs": [],
      "name": "highestBid",
      "outputs": [
        {
          "internalType": "uint256",
          "name": "",
          "type": "uint256"
        }
      ],
      "payable": false,
      "stateMutability": "view",
      "type": "function"
    },
    {
      "constant": true,
      "inputs": [],
      "name": "highestBidder",
      "outputs": [
        {
          "internalType": "address",
          "name": "",
          "type": "address"
        }
      ],
      "payable": false,
      "stateMutability": "view",
      "type": "function"
    },
    {
      "constant": false,
      "inputs": [],
      "name": "bid",
      "outputs": [],
      "payable": true,
      "stateMutability": "payable",
      "type": "function"
    },
    {
      "constant": false,
      "inputs": [],
      "name": "withdraw",
      "outputs": [
        {
          "internalType": "bool",
          "name": "",
          "type": "bool"
        }
      ],
      "payable": false,
      "stateMutability": "nonpayable",
      "type": "function"
    },
    {
      "constant": false,
      "inputs": [],
      "name": "auctionEnd",
      "outputs": [],
      "payable": false,
      "stateMutability": "nonpayable",
      "type": "function"
    }
  ],
  "bytecode": "0x60806040526000600360006101000a81548160ff02191690831515021790555034801561002b57600080fd5b50336000806101000a81548173ffffffffffffffffffffffffffffffffffffffff021916908373ffffffffffffffffffffffffffffffffffffffff1602179055506105d48061007b6000396000f3fe6080604052600436106100555760003560e01c80631998aeef1461005a5780632a24f46c1461006457806338af3eed1461007b5780633ccfd60b146100d257806391f9015714610101578063d57bde7914610158575b600080fd5b610062610183565b005b34801561007057600080fd5b506100796102c1565b005b34801561008757600080fd5b5061009061042a565b604051808273ffffffffffffffffffffffffffffffffffffffff1673ffffffffffffffffffffffffffffffffffffffff16815260200191505060405180910390f35b3480156100de57600080fd5b506100e761044f565b604051808215151515815260200191505060405180910390f35b34801561010d57600080fd5b50610116610573565b604051808273ffffffffffffffffffffffffffffffffffffffff1673ffffffffffffffffffffffffffffffffffffffff16815260200191505060405180910390f35b34801561016457600080fd5b5061016d610599565b6040518082815260200191505060405180910390f35b60025434116101fa576040517f08c379a000000000000000000000000000000000000000000000000000000000815260040180806020018281038252600d8152602001807f4c6f7765722042616c616e63650000000000000000000000000000000000000081525060200191505060405180910390fd5b600060025411156102775760025460046000600160009054906101000a900473ffffffffffffffffffffffffffffffffffffffff1673ffffffffffffffffffffffffffffffffffffffff1673ffffffffffffffffffffffffffffffffffffffff168152602001908152602001600020600082825401925050819055505b3460028190555033600160006101000a81548173ffffffffffffffffffffffffffffffffffffffff021916908373ffffffffffffffffffffffffffffffffffffffff160217905550565b60001515600360009054906101000a900460ff161515146102e157600080fd5b6000809054906101000a900473ffffffffffffffffffffffffffffffffffffffff1673ffffffffffffffffffffffffffffffffffffffff163373ffffffffffffffffffffffffffffffffffffffff16146103a3576040517f08c379a000000000000000000000000000000000000000000000000000000000815260040180806020018281038252601b8152602001807f596f7520617265206e6f74207468652062656e6566696369617279000000000081525060200191505060405180910390fd5b6001600360006101000a81548160ff0219169083151502179055506000809054906101000a900473ffffffffffffffffffffffffffffffffffffffff1673ffffffffffffffffffffffffffffffffffffffff166108fc6002549081150290604051600060405180830381858888f19350505050158015610427573d6000803e3d6000fd5b50565b6000809054906101000a900473ffffffffffffffffffffffffffffffffffffffff1681565b600080600460003373ffffffffffffffffffffffffffffffffffffffff1673ffffffffffffffffffffffffffffffffffffffff168152602001908152602001600020549050600081111561056a576000600460003373ffffffffffffffffffffffffffffffffffffffff1673ffffffffffffffffffffffffffffffffffffffff168152602001908152602001600020819055503373ffffffffffffffffffffffffffffffffffffffff166108fc829081150290604051600060405180830381858888f193505050506105695780600460003373ffffffffffffffffffffffffffffffffffffffff1673ffffffffffffffffffffffffffffffffffffffff168152602001908152602001600020819055506000915050610570565b5b60019150505b90565b600160009054906101000a900473ffffffffffffffffffffffffffffffffffffffff1681565b6002548156fea265627a7a72315820861ee53d3a4ae898f4a5f52fa8c2636f2421b3ef6d0726ab57f4ff12eda7c8df64736f6c63430005100032",
  "source": "pragma solidity ^0.5.0;\n\ncontract Auction {\n    address payable public beneficiary;\n\n    // Current state of the auction. \n    address public highestBidder;\n    uint public highestBid;\n\n\n    //flag for action to be called once to know if auction has ended once\n    bool called_auction=false;\n    // Allowed withdrawals of previous bids\n    mapping(address => uint) pendingReturns;\n\n    // Constructor\n    constructor() public {\n        beneficiary = msg.sender;\n    }\n\n    /// Bid on the auction with the value sent\n    /// together with this transaction.\n    /// The value will only be refunded if the\n    /// auction is not won.\n    function bid() public payable {\n\n        //Only bids higher than the highest bids are placed\n        require(msg.value>highestBid,\"Lower Balance\");\n        //Just a casual prev state check\n        //We know that msg.value is greater than the highestbid's state\n        if(highestBid>0)\n        {\n            //return the previous highest bid to the previous highest bidder\n            pendingReturns[highestBidder]+=highestBid;\n        }\n        //Update the highest bid and the bidder\n        highestBid=msg.value;\n        highestBidder=msg.sender;\n\n        // Sending back the money by simply using\n        // highestBidder.send(highestBid) is a security risk\n        // because it could execute an untrusted contract.\n        // It is always safer to let the recipients\n        // withdraw their money themselves.\n        \n    }\n\n    /// Withdraw a bid that was overbid.\n    function withdraw() public returns (bool) {\n            uint amount=pendingReturns[msg.sender];\n            if(amount>0)\n            { //Preventing reentrancy just by setting the amount to 0 till withdrawal is complete.\n                pendingReturns[msg.sender]=0;\n                if(!msg.sender.send(amount))\n                {\n                    pendingReturns[msg.sender]=amount;\n                    return false;\n                }\n\n            }\n            return true;\n\n    }\n\n    /// End the auction and send the highest bid\n    /// to the beneficiary.\n    function auctionEnd() public {\n        \n        // Adding a flag to avoid repeated endAuction Calls\n        require(called_auction==false);\n        // making sure that only the beneficiary can trigger this function. Use \"require\"\n        require(msg.sender== beneficiary,\"You are not the beneficiary\");\n        \n        called_auction=true;\n        beneficiary.transfer(highestBid);\n        \n    }\n}",
  "sourcePath": "C:\\Users\\hp\\Documents\\BlockchainDapp\\hw1-source\\contracts\\Auction.sol",
  "compiler": {
    "name": "solc",
    "version": "0.5.16+commit.9c3226ce.Emscripten.clang"
  },
  "schemaVersion": "3.4.4",
  "updatedAt": "2022-02-11T02:50:58.732Z",
  "networkType": "ethereum",
  "devdoc": {
    "methods": {}
  },
  "userdoc": {
    "methods": {
      "auctionEnd()": {
        "notice": "End the auction and send the highest bid to the beneficiary."
      },
      "bid()": {
        "notice": "Bid on the auction with the value sent together with this transaction. The value will only be refunded if the auction is not won."
      },
      "withdraw()": {
        "notice": "Withdraw a bid that was overbid."
      }
    }
  }
}